{
  "contractName": "Corwdsale",
  "abi": [
    {
      "inputs": [
        {
          "internalType": "uint256",
          "name": "_icoStartTime",
          "type": "uint256"
        },
        {
          "internalType": "uint256",
          "name": "_icoEndTime",
          "type": "uint256"
        },
        {
          "internalType": "uint256",
          "name": "_tokenRate",
          "type": "uint256"
        },
        {
          "internalType": "address",
          "name": "_tokenAddress",
          "type": "address"
        },
        {
          "internalType": "uint256",
          "name": "_fundingGoal",
          "type": "uint256"
        }
      ],
      "stateMutability": "nonpayable",
      "type": "constructor"
    },
    {
      "inputs": [],
      "name": "etherRaised",
      "outputs": [
        {
          "internalType": "uint256",
          "name": "",
          "type": "uint256"
        }
      ],
      "stateMutability": "view",
      "type": "function"
    },
    {
      "inputs": [],
      "name": "fundingGoal",
      "outputs": [
        {
          "internalType": "uint256",
          "name": "",
          "type": "uint256"
        }
      ],
      "stateMutability": "view",
      "type": "function"
    },
    {
      "inputs": [],
      "name": "icoEndTime",
      "outputs": [
        {
          "internalType": "uint256",
          "name": "",
          "type": "uint256"
        }
      ],
      "stateMutability": "view",
      "type": "function"
    },
    {
      "inputs": [],
      "name": "icoStartTime",
      "outputs": [
        {
          "internalType": "uint256",
          "name": "",
          "type": "uint256"
        }
      ],
      "stateMutability": "view",
      "type": "function"
    },
    {
      "inputs": [],
      "name": "limitTierFour",
      "outputs": [
        {
          "internalType": "uint256",
          "name": "",
          "type": "uint256"
        }
      ],
      "stateMutability": "view",
      "type": "function"
    },
    {
      "inputs": [],
      "name": "limitTierOne",
      "outputs": [
        {
          "internalType": "uint256",
          "name": "",
          "type": "uint256"
        }
      ],
      "stateMutability": "view",
      "type": "function"
    },
    {
      "inputs": [],
      "name": "limitTierThree",
      "outputs": [
        {
          "internalType": "uint256",
          "name": "",
          "type": "uint256"
        }
      ],
      "stateMutability": "view",
      "type": "function"
    },
    {
      "inputs": [],
      "name": "limitTierTwo",
      "outputs": [
        {
          "internalType": "uint256",
          "name": "",
          "type": "uint256"
        }
      ],
      "stateMutability": "view",
      "type": "function"
    },
    {
      "inputs": [],
      "name": "owner",
      "outputs": [
        {
          "internalType": "address payable",
          "name": "",
          "type": "address"
        }
      ],
      "stateMutability": "view",
      "type": "function"
    },
    {
      "inputs": [],
      "name": "rateFour",
      "outputs": [
        {
          "internalType": "uint256",
          "name": "",
          "type": "uint256"
        }
      ],
      "stateMutability": "view",
      "type": "function"
    },
    {
      "inputs": [],
      "name": "rateOne",
      "outputs": [
        {
          "internalType": "uint256",
          "name": "",
          "type": "uint256"
        }
      ],
      "stateMutability": "view",
      "type": "function"
    },
    {
      "inputs": [],
      "name": "rateThree",
      "outputs": [
        {
          "internalType": "uint256",
          "name": "",
          "type": "uint256"
        }
      ],
      "stateMutability": "view",
      "type": "function"
    },
    {
      "inputs": [],
      "name": "rateTwo",
      "outputs": [
        {
          "internalType": "uint256",
          "name": "",
          "type": "uint256"
        }
      ],
      "stateMutability": "view",
      "type": "function"
    },
    {
      "inputs": [],
      "name": "tokenAddress",
      "outputs": [
        {
          "internalType": "contract MyToken",
          "name": "",
          "type": "address"
        }
      ],
      "stateMutability": "view",
      "type": "function"
    },
    {
      "inputs": [],
      "name": "tokenRate",
      "outputs": [
        {
          "internalType": "uint256",
          "name": "",
          "type": "uint256"
        }
      ],
      "stateMutability": "view",
      "type": "function"
    },
    {
      "inputs": [],
      "name": "tokensRaised",
      "outputs": [
        {
          "internalType": "uint256",
          "name": "",
          "type": "uint256"
        }
      ],
      "stateMutability": "view",
      "type": "function"
    },
    {
      "stateMutability": "payable",
      "type": "receive"
    },
    {
      "inputs": [],
      "name": "buy",
      "outputs": [],
      "stateMutability": "payable",
      "type": "function"
    },
    {
      "inputs": [
        {
          "internalType": "uint256",
          "name": "amount",
          "type": "uint256"
        },
        {
          "internalType": "uint256",
          "name": "tokensThisTier",
          "type": "uint256"
        },
        {
          "internalType": "uint256",
          "name": "tierSelected",
          "type": "uint256"
        },
        {
          "internalType": "uint256",
          "name": "_rate",
          "type": "uint256"
        }
      ],
      "name": "calculateExcessTokens",
      "outputs": [
        {
          "internalType": "uint256",
          "name": "totalTokens",
          "type": "uint256"
        }
      ],
      "stateMutability": "nonpayable",
      "type": "function"
    },
    {
      "inputs": [],
      "name": "extractEther",
      "outputs": [],
      "stateMutability": "nonpayable",
      "type": "function"
    }
  ],
  "bytecode": "0x6080604052611388600855610fa0600955610bb8600a556107d0600b55600460009054906101000a900473ffffffffffffffffffffffffffffffffffffffff1673ffffffffffffffffffffffffffffffffffffffff16633c6aa9f16040518163ffffffff1660e01b815260040160206040518083038186803b1580156200008557600080fd5b505afa1580156200009a573d6000803e3d6000fd5b505050506040513d6020811015620000b157600080fd5b8101908080519060200190929190505050600a0a63017d784002600c55600460009054906101000a900473ffffffffffffffffffffffffffffffffffffffff1673ffffffffffffffffffffffffffffffffffffffff16633c6aa9f16040518163ffffffff1660e01b815260040160206040518083038186803b1580156200013757600080fd5b505afa1580156200014c573d6000803e3d6000fd5b505050506040513d60208110156200016357600080fd5b8101908080519060200190929190505050600a0a6302faf08002600d55600460009054906101000a900473ffffffffffffffffffffffffffffffffffffffff1673ffffffffffffffffffffffffffffffffffffffff16633c6aa9f16040518163ffffffff1660e01b815260040160206040518083038186803b158015620001e957600080fd5b505afa158015620001fe573d6000803e3d6000fd5b505050506040513d60208110156200021557600080fd5b8101908080519060200190929190505050600a0a63047868c002600e55600460009054906101000a900473ffffffffffffffffffffffffffffffffffffffff1673ffffffffffffffffffffffffffffffffffffffff16633c6aa9f16040518163ffffffff1660e01b815260040160206040518083038186803b1580156200029b57600080fd5b505afa158015620002b0573d6000803e3d6000fd5b505050506040513d6020811015620002c757600080fd5b8101908080519060200190929190505050600a0a6305f5e10002600f55348015620002f157600080fd5b50604051620016d8380380620016d8833981810160405260a08110156200031757600080fd5b8101908080519060200190929190805190602001909291908051906020019092919080519060200190929190805190602001909291905050506000851415801562000363575060008414155b80156200036f57508385105b80156200037d575060008314155b8015620003b75750600073ffffffffffffffffffffffffffffffffffffffff168273ffffffffffffffffffffffffffffffffffffffff1614155b8015620003c5575060008114155b620003cf57600080fd5b84600181905550836002819055508260038190555081600460006101000a81548173ffffffffffffffffffffffffffffffffffffffff021916908373ffffffffffffffffffffffffffffffffffffffff1602179055508060058190555033601060006101000a81548173ffffffffffffffffffffffffffffffffffffffff021916908373ffffffffffffffffffffffffffffffffffffffff160217905550505050505061125680620004826000396000f3fe6080604052600436106101185760003560e01c80638da5cb5b116100a0578063b4958eb411610064578063b4958eb4146103bf578063b8a3e454146103ea578063cd72ab6914610415578063dc26fc4514610440578063e08c5f011461046b57610127565b80638da5cb5b146102f15780639d76ea58146103325780639fee597b14610373578063a6f2ae3a1461038a578063a7c3d71b1461039457610127565b8063712a94e5116100e7578063712a94e5146101d857806375b3ea8e14610203578063764cc0ef146102705780637a3a0e841461029b5780637e1055b6146102c657610127565b8063317118841461012c57806331778e3c1461015757806367d067c4146101825780636ea6b71b146101ad57610127565b3661012757610125610496565b005b600080fd5b34801561013857600080fd5b50610141610a7e565b6040518082815260200191505060405180910390f35b34801561016357600080fd5b5061016c610a84565b6040518082815260200191505060405180910390f35b34801561018e57600080fd5b50610197610a8a565b6040518082815260200191505060405180910390f35b3480156101b957600080fd5b506101c2610a90565b6040518082815260200191505060405180910390f35b3480156101e457600080fd5b506101ed610a96565b6040518082815260200191505060405180910390f35b34801561020f57600080fd5b5061025a6004803603608081101561022657600080fd5b8101908080359060200190929190803590602001909291908035906020019092919080359060200190929190505050610a9c565b6040518082815260200191505060405180910390f35b34801561027c57600080fd5b50610285610bd6565b6040518082815260200191505060405180910390f35b3480156102a757600080fd5b506102b0610bdc565b6040518082815260200191505060405180910390f35b3480156102d257600080fd5b506102db610be2565b6040518082815260200191505060405180910390f35b3480156102fd57600080fd5b50610306610be8565b604051808273ffffffffffffffffffffffffffffffffffffffff16815260200191505060405180910390f35b34801561033e57600080fd5b50610347610c0e565b604051808273ffffffffffffffffffffffffffffffffffffffff16815260200191505060405180910390f35b34801561037f57600080fd5b50610388610c34565b005b610392610496565b005b3480156103a057600080fd5b506103a9610d10565b6040518082815260200191505060405180910390f35b3480156103cb57600080fd5b506103d4610d16565b6040518082815260200191505060405180910390f35b3480156103f657600080fd5b506103ff610d1c565b6040518082815260200191505060405180910390f35b34801561042157600080fd5b5061042a610d22565b6040518082815260200191505060405180910390f35b34801561044c57600080fd5b50610455610d28565b6040518082815260200191505060405180910390f35b34801561047757600080fd5b50610480610d2e565b6040518082815260200191505060405180910390f35b600554600654106104a657600080fd5b600254421080156104b8575060015442115b6104c157600080fd5b600080349050600c5460065410156105b957600854670de0b6b3a7640000600460009054906101000a900473ffffffffffffffffffffffffffffffffffffffff1673ffffffffffffffffffffffffffffffffffffffff16633c6aa9f16040518163ffffffff1660e01b815260040160206040518083038186803b15801561054757600080fd5b505afa15801561055b573d6000803e3d6000fd5b505050506040513d602081101561057157600080fd5b8101908080519060200190929190505050600a0a83028161058e57fe5b04029150600c54826006540111156105b4576105b181600c546001600854610a9c565b91505b61088b565b600c54600654101580156105d05750600d54600654105b156106bb57600954670de0b6b3a7640000600460009054906101000a900473ffffffffffffffffffffffffffffffffffffffff1673ffffffffffffffffffffffffffffffffffffffff16633c6aa9f16040518163ffffffff1660e01b815260040160206040518083038186803b15801561064957600080fd5b505afa15801561065d573d6000803e3d6000fd5b505050506040513d602081101561067357600080fd5b8101908080519060200190929190505050600a0a83028161069057fe5b04029150600d54826006540111156106b6576106b381600d546002600954610a9c565b91505b61088a565b600d54600654101580156106d25750600e54600654105b156107bd57600a54670de0b6b3a7640000600460009054906101000a900473ffffffffffffffffffffffffffffffffffffffff1673ffffffffffffffffffffffffffffffffffffffff16633c6aa9f16040518163ffffffff1660e01b815260040160206040518083038186803b15801561074b57600080fd5b505afa15801561075f573d6000803e3d6000fd5b505050506040513d602081101561077557600080fd5b8101908080519060200190929190505050600a0a83028161079257fe5b04029150600e54826006540111156107b8576107b581600e546003600a54610a9c565b91505b610889565b600e546006541061088857600b54670de0b6b3a7640000600460009054906101000a900473ffffffffffffffffffffffffffffffffffffffff1673ffffffffffffffffffffffffffffffffffffffff16633c6aa9f16040518163ffffffff1660e01b815260040160206040518083038186803b15801561083c57600080fd5b505afa158015610850573d6000803e3d6000fd5b505050506040513d602081101561086657600080fd5b8101908080519060200190929190505050600a0a83028161088357fe5b040291505b5b5b5b600554826006540111156109bf57600060055483600654010390506000600460009054906101000a900473ffffffffffffffffffffffffffffffffffffffff1673ffffffffffffffffffffffffffffffffffffffff16633c6aa9f16040518163ffffffff1660e01b815260040160206040518083038186803b15801561091057600080fd5b505afa158015610924573d6000803e3d6000fd5b505050506040513d602081101561093a57600080fd5b8101908080519060200190929190505050600354670de0b6b3a764000084028161096057fe5b048161096857fe5b0490503373ffffffffffffffffffffffffffffffffffffffff166108fc829081150290604051600060405180830381858888f193505050501580156109b1573d6000803e3d6000fd5b508184039350808303925050505b600460009054906101000a900473ffffffffffffffffffffffffffffffffffffffff1673ffffffffffffffffffffffffffffffffffffffff16630752881a33846040518363ffffffff1660e01b8152600401808373ffffffffffffffffffffffffffffffffffffffff16815260200182815260200192505050600060405180830381600087803b158015610a5257600080fd5b505af1158015610a66573d6000803e3d6000fd5b50505050816006600082825401925050819055505050565b60035481565b600e5481565b600d5481565b60065481565b600b5481565b60008085118015610aad5750600084115b8015610ab95750600082115b610ac257600080fd5b60018310158015610ad4575060048311155b610add57600080fd5b6000610b0683610af860065488610d3490919063ffffffff16565b610db790919063ffffffff16565b90506000610b1d8288610d3490919063ffffffff16565b905060008060048714610b4e57610b4783610b4260018a610e4090919063ffffffff16565b610ec8565b9150610b53565b600190505b610b7a82610b6c6006548b610d3490919063ffffffff16565b610e4090919063ffffffff16565b94508015610bca573373ffffffffffffffffffffffffffffffffffffffff166108fc849081150290604051600060405180830381858888f19350505050158015610bc8573d6000803e3d6000fd5b505b50505050949350505050565b60095481565b60055481565b60025481565b601060009054906101000a900473ffffffffffffffffffffffffffffffffffffffff1681565b600460009054906101000a900473ffffffffffffffffffffffffffffffffffffffff1681565b60008054906101000a900460ff16610c4b57600080fd5b601060009054906101000a900473ffffffffffffffffffffffffffffffffffffffff1673ffffffffffffffffffffffffffffffffffffffff163373ffffffffffffffffffffffffffffffffffffffff1614610ca557600080fd5b601060009054906101000a900473ffffffffffffffffffffffffffffffffffffffff1673ffffffffffffffffffffffffffffffffffffffff166108fc479081150290604051600060405180830381858888f19350505050158015610d0d573d6000803e3d6000fd5b50565b60015481565b600c5481565b600a5481565b60075481565b60085481565b600f5481565b600082821115610dac576040517f08c379a000000000000000000000000000000000000000000000000000000000815260040180806020018281038252601e8152602001807f536166654d6174683a207375627472616374696f6e206f766572666c6f77000081525060200191505060405180910390fd5b818303905092915050565b6000808211610e2e576040517f08c379a000000000000000000000000000000000000000000000000000000000815260040180806020018281038252601a8152602001807f536166654d6174683a206469766973696f6e206279207a65726f00000000000081525060200191505060405180910390fd5b818381610e3757fe5b04905092915050565b600080828401905083811015610ebe576040517f08c379a000000000000000000000000000000000000000000000000000000000815260040180806020018281038252601b8152602001807f536166654d6174683a206164646974696f6e206f766572666c6f77000000000081525060200191505060405180910390fd5b8091505092915050565b6000808311610ed657600080fd5b60018210158015610ee8575060048211155b610ef157600080fd5b6001821415610fbe57600854670de0b6b3a7640000600460009054906101000a900473ffffffffffffffffffffffffffffffffffffffff1673ffffffffffffffffffffffffffffffffffffffff16633c6aa9f16040518163ffffffff1660e01b815260040160206040518083038186803b158015610f6e57600080fd5b505afa158015610f82573d6000803e3d6000fd5b505050506040513d6020811015610f9857600080fd5b8101908080519060200190929190505050600a0a850281610fb557fe5b0402905061121a565b600282141561108b57600954670de0b6b3a7640000600460009054906101000a900473ffffffffffffffffffffffffffffffffffffffff1673ffffffffffffffffffffffffffffffffffffffff16633c6aa9f16040518163ffffffff1660e01b815260040160206040518083038186803b15801561103b57600080fd5b505afa15801561104f573d6000803e3d6000fd5b505050506040513d602081101561106557600080fd5b8101908080519060200190929190505050600a0a85028161108257fe5b04029050611219565b600382141561115857600a54670de0b6b3a7640000600460009054906101000a900473ffffffffffffffffffffffffffffffffffffffff1673ffffffffffffffffffffffffffffffffffffffff16633c6aa9f16040518163ffffffff1660e01b815260040160206040518083038186803b15801561110857600080fd5b505afa15801561111c573d6000803e3d6000fd5b505050506040513d602081101561113257600080fd5b8101908080519060200190929190505050600a0a85028161114f57fe5b04029050611218565b600b54670de0b6b3a7640000600460009054906101000a900473ffffffffffffffffffffffffffffffffffffffff1673ffffffffffffffffffffffffffffffffffffffff16633c6aa9f16040518163ffffffff1660e01b815260040160206040518083038186803b1580156111cc57600080fd5b505afa1580156111e0573d6000803e3d6000fd5b505050506040513d60208110156111f657600080fd5b8101908080519060200190929190505050600a0a85028161121357fe5b040290505b5b5b9291505056fea2646970667358221220e015d65b721ecb712997b423831a9c1e01d0d1fa2ea1244a9a8af052893e3ecf64736f6c634300060c0033",
  "immutableReferences": {},
  "source": "pragma solidity ^0.6.2;\nimport \"@openzeppelin/contracts/math/SafeMath.sol\";\nimport \"./MyToken.sol\";\n\n\ncontract Corwdsale {\n\n    using SafeMath for uint256;\n\n    bool isIcoCompleted;\n\n    uint256 public icoStartTime;\n    uint256 public icoEndTime;\n    uint256 public tokenRate;\n    MyToken public tokenAddress;\n    uint256 public fundingGoal;\n\n    uint256 public tokensRaised;\n    uint256 public etherRaised;\n\n\n    uint256 public rateOne = 5000;\n    uint256 public rateTwo = 4000;\n    uint256 public rateThree = 3000;\n    uint256 public rateFour = 2000;\n    \n    uint256 public limitTierOne = 25e6 * (10 ** tokenAddress.decimalsValue());\n\n    uint256 public limitTierTwo = 50e6 * (10 ** tokenAddress.decimalsValue());\n    uint256 public limitTierThree = 75e6 * (10 ** tokenAddress.decimalsValue());\n    uint256 public limitTierFour = 100e6 * (10 ** tokenAddress.decimalsValue());\n\n\n    address payable public owner;\n\n    modifier whenIcoCompleted {\n        require(isIcoCompleted);\n        _;\n    }\n\n    modifier onlyOwner {\n        require(msg.sender == owner);\n        _;\n    }\n\n    constructor(uint256 _icoStartTime, uint256 _icoEndTime, uint256 _tokenRate ,address _tokenAddress, uint256 _fundingGoal) public {\n        require(_icoStartTime != 0 && _icoEndTime != 0 && _icoStartTime < _icoEndTime && _tokenRate != 0 && _tokenAddress != address(0) && _fundingGoal != 0);\n        icoStartTime = _icoStartTime;\n        icoEndTime = _icoEndTime;\n        tokenRate = _tokenRate;\n        tokenAddress = MyToken(_tokenAddress);\n        fundingGoal = _fundingGoal;\n\n        owner = msg.sender;\n\n    }\n\n    receive() external payable {\n        buy();\n    }\n\n    function buy() public payable {\n        require(tokensRaised < fundingGoal);\n        require(now < icoEndTime && now > icoStartTime);\n        uint256 tokensToBuy;\n        uint256 etherUsed = msg.value;\n        // If the tokens raised are less than 25 million with decimalsValue, apply the first rate\n        if(tokensRaised < limitTierOne) {\n            // Tier 1\n            tokensToBuy = etherUsed * (10 ** tokenAddress.decimalsValue()) / 1 ether * rateOne;\n            \n            // If the amount of tokens that you want to buy gets out of this tier\n            if(tokensRaised + tokensToBuy > limitTierOne) {\n                tokensToBuy = calculateExcessTokens(etherUsed, limitTierOne, 1, rateOne);\n            }\n        } else if(tokensRaised >= limitTierOne && tokensRaised < limitTierTwo) {\n            // Tier 2\n            tokensToBuy = etherUsed * (10 ** tokenAddress.decimalsValue()) / 1 ether * rateTwo;\n            \n            // If the amount of tokens that you want to buy gets out of this tier\n            if(tokensRaised + tokensToBuy > limitTierTwo) {\n                tokensToBuy = calculateExcessTokens(etherUsed, limitTierTwo, 2, rateTwo);\n            }\n        } else if(tokensRaised >= limitTierTwo && tokensRaised < limitTierThree) {\n            // Tier 3\n            tokensToBuy = etherUsed * (10 ** tokenAddress.decimalsValue()) / 1 ether * rateThree;\n            \n            // If the amount of tokens that you want to buy gets out of this tier\n            if(tokensRaised + tokensToBuy > limitTierThree) {\n                tokensToBuy = calculateExcessTokens(etherUsed, limitTierThree, 3, rateThree);\n            }\n        } else if(tokensRaised >= limitTierThree) {\n            // Tier 4\n            tokensToBuy = etherUsed * (10 ** tokenAddress.decimalsValue()) / 1 ether * rateFour;\n        }\n        // Check if we have reached and exceeded the funding goal to refund the exceeding tokens and ether\n        if(tokensRaised + tokensToBuy > fundingGoal) {\n            uint256 exceedingTokens = tokensRaised + tokensToBuy - fundingGoal;\n            uint256 exceedingEther;\n            \n            // Convert the exceedingTokens to ether and refund that ether\n            exceedingEther = exceedingTokens * 1 ether / tokenRate / tokenAddress.decimalsValue();\n            msg.sender.transfer(exceedingEther);\n            \n            // Change the tokens to buy to the new number\n            tokensToBuy -= exceedingTokens;\n            \n            // Update the counter of ether used\n            etherUsed -= exceedingEther;\n        }\n            \n        // Send the tokens to the buyer\n        tokenAddress.buyTokens(msg.sender, tokensToBuy);\n            \n        // Increase the tokens raised and ether raised state variables\n        tokensRaised += tokensToBuy;\n    }\n\n    function calculateExcessTokens(\n        uint256 amount,\n        uint256 tokensThisTier,\n        uint256 tierSelected,\n        uint256 _rate\n        ) public returns(uint256 totalTokens) {\n        require(amount > 0 && tokensThisTier > 0 && _rate > 0);\n        require(tierSelected >= 1 && tierSelected <= 4);\n        uint256 weiThisTier = tokensThisTier.sub(tokensRaised).div(_rate);\n        uint256 weiNextTier = amount.sub(weiThisTier);\n        uint256 tokensNextTier = 0;\n        bool returnTokens = false;\n        // If there are excessive weis for the last tier, refund those\n        if(tierSelected != 4)\n            tokensNextTier = calculateTokensTier(weiNextTier, tierSelected.add(1));\n        else\n            returnTokens = true;\n        totalTokens = tokensThisTier.sub(tokensRaised).add(tokensNextTier);\n        // Do the transfer at the end\n        if(returnTokens) msg.sender.transfer(weiNextTier);\n        }\n\n    function calculateTokensTier(uint256 weiPaid, uint256 tierSelected) internal returns(uint256 calculatedTokens)\n    {\n        require(weiPaid > 0);\n        require(tierSelected >= 1 && tierSelected <= 4);\n        if(tierSelected == 1)\n            calculatedTokens = weiPaid * (10 ** tokenAddress.decimalsValue()) / 1 ether * rateOne;\n        else if(tierSelected == 2)\n            calculatedTokens = weiPaid * (10 ** tokenAddress.decimalsValue()) / 1 ether * rateTwo;\n        else if(tierSelected == 3)\n            calculatedTokens = weiPaid * (10 ** tokenAddress.decimalsValue()) / 1 ether * rateThree;\n        else\n            calculatedTokens = weiPaid * (10 ** tokenAddress.decimalsValue()) / 1 ether * rateFour;\n    }\n\n    function extractEther() public whenIcoCompleted onlyOwner  {\n        owner.transfer(address(this).balance);\n    }\n}",
  "sourcePath": "/home/usamarajpoot/Desktop/Blockchain/practice-project-eth-dapp/advance-ico/contracts/Crowdsale.sol",
  "compiler": {
    "name": "solc",
    "version": "0.6.12+commit.27d51765.Emscripten.clang"
  },
  "schemaVersion": "3.3.4",
  "updatedAt": "2021-04-13T19:56:05.683Z",
  "devdoc": {
    "kind": "dev",
    "methods": {},
    "version": 1
  },
  "userdoc": {
    "kind": "user",
    "methods": {},
    "version": 1
  }
}