{
  "contractName": "MyToken",
  "abi": [
    {
      "inputs": [
        {
          "internalType": "uint256",
          "name": "_ICOEndTime",
          "type": "uint256"
        }
      ],
      "stateMutability": "nonpayable",
      "type": "constructor"
    },
    {
      "anonymous": false,
      "inputs": [
        {
          "indexed": true,
          "internalType": "address",
          "name": "owner",
          "type": "address"
        },
        {
          "indexed": true,
          "internalType": "address",
          "name": "spender",
          "type": "address"
        },
        {
          "indexed": false,
          "internalType": "uint256",
          "name": "value",
          "type": "uint256"
        }
      ],
      "name": "Approval",
      "type": "event"
    },
    {
      "anonymous": false,
      "inputs": [
        {
          "indexed": true,
          "internalType": "address",
          "name": "from",
          "type": "address"
        },
        {
          "indexed": true,
          "internalType": "address",
          "name": "to",
          "type": "address"
        },
        {
          "indexed": false,
          "internalType": "uint256",
          "name": "value",
          "type": "uint256"
        }
      ],
      "name": "Transfer",
      "type": "event"
    },
    {
      "inputs": [],
      "name": "ICOEndTime",
      "outputs": [
        {
          "internalType": "uint256",
          "name": "",
          "type": "uint256"
        }
      ],
      "stateMutability": "view",
      "type": "function"
    },
    {
      "inputs": [
        {
          "internalType": "address",
          "name": "account",
          "type": "address"
        }
      ],
      "name": "balanceOf",
      "outputs": [
        {
          "internalType": "uint256",
          "name": "",
          "type": "uint256"
        }
      ],
      "stateMutability": "view",
      "type": "function"
    },
    {
      "inputs": [],
      "name": "crowdSaleAddress",
      "outputs": [
        {
          "internalType": "address",
          "name": "",
          "type": "address"
        }
      ],
      "stateMutability": "view",
      "type": "function"
    },
    {
      "inputs": [],
      "name": "decimals",
      "outputs": [
        {
          "internalType": "uint8",
          "name": "",
          "type": "uint8"
        }
      ],
      "stateMutability": "view",
      "type": "function"
    },
    {
      "inputs": [],
      "name": "decimalsValue",
      "outputs": [
        {
          "internalType": "uint256",
          "name": "",
          "type": "uint256"
        }
      ],
      "stateMutability": "view",
      "type": "function"
    },
    {
      "inputs": [],
      "name": "name",
      "outputs": [
        {
          "internalType": "string",
          "name": "",
          "type": "string"
        }
      ],
      "stateMutability": "view",
      "type": "function"
    },
    {
      "inputs": [],
      "name": "owner",
      "outputs": [
        {
          "internalType": "address payable",
          "name": "",
          "type": "address"
        }
      ],
      "stateMutability": "view",
      "type": "function"
    },
    {
      "inputs": [],
      "name": "symbol",
      "outputs": [
        {
          "internalType": "string",
          "name": "",
          "type": "string"
        }
      ],
      "stateMutability": "view",
      "type": "function"
    },
    {
      "inputs": [],
      "name": "totalSupply",
      "outputs": [
        {
          "internalType": "uint256",
          "name": "",
          "type": "uint256"
        }
      ],
      "stateMutability": "view",
      "type": "function"
    },
    {
      "inputs": [
        {
          "internalType": "address",
          "name": "_crowdSaleAddress",
          "type": "address"
        }
      ],
      "name": "setCrowsale",
      "outputs": [],
      "stateMutability": "nonpayable",
      "type": "function"
    },
    {
      "inputs": [
        {
          "internalType": "address",
          "name": "_receiver",
          "type": "address"
        },
        {
          "internalType": "uint256",
          "name": "_amount",
          "type": "uint256"
        }
      ],
      "name": "buyTokens",
      "outputs": [],
      "stateMutability": "nonpayable",
      "type": "function"
    },
    {
      "inputs": [
        {
          "internalType": "address",
          "name": "_to",
          "type": "address"
        },
        {
          "internalType": "uint256",
          "name": "_value",
          "type": "uint256"
        }
      ],
      "name": "transfer",
      "outputs": [
        {
          "internalType": "bool",
          "name": "",
          "type": "bool"
        }
      ],
      "stateMutability": "nonpayable",
      "type": "function"
    },
    {
      "inputs": [
        {
          "internalType": "address",
          "name": "_from",
          "type": "address"
        },
        {
          "internalType": "address",
          "name": "_to",
          "type": "address"
        },
        {
          "internalType": "uint256",
          "name": "_value",
          "type": "uint256"
        }
      ],
      "name": "transferFrom",
      "outputs": [
        {
          "internalType": "bool",
          "name": "",
          "type": "bool"
        }
      ],
      "stateMutability": "nonpayable",
      "type": "function"
    },
    {
      "inputs": [
        {
          "internalType": "address",
          "name": "_spender",
          "type": "address"
        },
        {
          "internalType": "uint256",
          "name": "_value",
          "type": "uint256"
        }
      ],
      "name": "approve",
      "outputs": [
        {
          "internalType": "bool",
          "name": "",
          "type": "bool"
        }
      ],
      "stateMutability": "nonpayable",
      "type": "function"
    },
    {
      "inputs": [
        {
          "internalType": "address",
          "name": "_owner",
          "type": "address"
        },
        {
          "internalType": "address",
          "name": "_spender",
          "type": "address"
        }
      ],
      "name": "allowance",
      "outputs": [
        {
          "internalType": "uint256",
          "name": "",
          "type": "uint256"
        }
      ],
      "stateMutability": "view",
      "type": "function"
    },
    {
      "inputs": [
        {
          "internalType": "address",
          "name": "_spender",
          "type": "address"
        },
        {
          "internalType": "uint256",
          "name": "_addedValue",
          "type": "uint256"
        }
      ],
      "name": "increaseAllowance",
      "outputs": [
        {
          "internalType": "bool",
          "name": "",
          "type": "bool"
        }
      ],
      "stateMutability": "nonpayable",
      "type": "function"
    },
    {
      "inputs": [
        {
          "internalType": "address",
          "name": "_spender",
          "type": "address"
        },
        {
          "internalType": "uint256",
          "name": "_subtractedValue",
          "type": "uint256"
        }
      ],
      "name": "decreaseAllowance",
      "outputs": [
        {
          "internalType": "bool",
          "name": "",
          "type": "bool"
        }
      ],
      "stateMutability": "nonpayable",
      "type": "function"
    },
    {
      "inputs": [],
      "name": "emergencyExtract",
      "outputs": [],
      "stateMutability": "nonpayable",
      "type": "function"
    }
  ],
  "bytecode": "0x608060405260126006553480156200001657600080fd5b5060405162001cd138038062001cd1833981810160405260208110156200003c57600080fd5b81019080805190602001909291905050506040518060400160405280600b81526020017f46726569676874436f696e0000000000000000000000000000000000000000008152506040518060400160405280600381526020017f46523800000000000000000000000000000000000000000000000000000000008152508160039080519060200190620000d19291906200040b565b508060049080519060200190620000ea9291906200040b565b506012600560006101000a81548160ff021916908360ff16021790555050506200011f33630c8458806200018160201b60201c565b620001326006546200035f60201b60201c565b33600760006101000a81548173ffffffffffffffffffffffffffffffffffffffff021916908373ffffffffffffffffffffffffffffffffffffffff1602179055508060098190555050620004b1565b600073ffffffffffffffffffffffffffffffffffffffff168273ffffffffffffffffffffffffffffffffffffffff16141562000225576040517f08c379a000000000000000000000000000000000000000000000000000000000815260040180806020018281038252601f8152602001807f45524332303a206d696e7420746f20746865207a65726f20616464726573730081525060200191505060405180910390fd5b62000239600083836200037d60201b60201c565b62000255816002546200038260201b62000db61790919060201c565b600281905550620002b3816000808573ffffffffffffffffffffffffffffffffffffffff1673ffffffffffffffffffffffffffffffffffffffff168152602001908152602001600020546200038260201b62000db61790919060201c565b6000808473ffffffffffffffffffffffffffffffffffffffff1673ffffffffffffffffffffffffffffffffffffffff168152602001908152602001600020819055508173ffffffffffffffffffffffffffffffffffffffff16600073ffffffffffffffffffffffffffffffffffffffff167fddf252ad1be2c89b69c2b068fc378daa952ba7f163c4a11628f55a4df523b3ef836040518082815260200191505060405180910390a35050565b80600560006101000a81548160ff021916908360ff16021790555050565b505050565b60008082840190508381101562000401576040517f08c379a000000000000000000000000000000000000000000000000000000000815260040180806020018281038252601b8152602001807f536166654d6174683a206164646974696f6e206f766572666c6f77000000000081525060200191505060405180910390fd5b8091505092915050565b828054600181600116156101000203166002900490600052602060002090601f016020900481019282601f106200044e57805160ff19168380011785556200047f565b828001600101855582156200047f579182015b828111156200047e57825182559160200191906001019062000461565b5b5090506200048e919062000492565b5090565b5b80821115620004ad57600081600090555060010162000493565b5090565b61181080620004c16000396000f3fe608060405234801561001057600080fd5b50600436106101165760003560e01c806346ee35ae116100a257806395d89b411161007157806395d89b41146104a3578063a242f04914610526578063a457c2d714610544578063a9059cbb146105a8578063dd62ed3e1461060c57610116565b806346ee35ae146103c95780635fa512771461040d57806370a08231146104175780638da5cb5b1461046f57610116565b806318160ddd116100e957806318160ddd1461028457806323b872dd146102a2578063313ce5671461032657806339509351146103475780633c6aa9f1146103ab57610116565b80630184fc351461011b57806306fdde031461014f5780630752881a146101d2578063095ea7b314610220575b600080fd5b610123610684565b604051808273ffffffffffffffffffffffffffffffffffffffff16815260200191505060405180910390f35b6101576106aa565b6040518080602001828103825283818151815260200191508051906020019080838360005b8381101561019757808201518184015260208101905061017c565b50505050905090810190601f1680156101c45780820380516001836020036101000a031916815260200191505b509250505060405180910390f35b61021e600480360360408110156101e857600080fd5b81019080803573ffffffffffffffffffffffffffffffffffffffff1690602001909291908035906020019092919050505061074c565b005b61026c6004803603604081101561023657600080fd5b81019080803573ffffffffffffffffffffffffffffffffffffffff169060200190929190803590602001909291905050506107fc565b60405180821515815260200191505060405180910390f35b61028c610876565b6040518082815260200191505060405180910390f35b61030e600480360360608110156102b857600080fd5b81019080803573ffffffffffffffffffffffffffffffffffffffff169060200190929190803573ffffffffffffffffffffffffffffffffffffffff16906020019092919080359060200190929190505050610880565b60405180821515815260200191505060405180910390f35b61032e6108fc565b604051808260ff16815260200191505060405180910390f35b6103936004803603604081101561035d57600080fd5b81019080803573ffffffffffffffffffffffffffffffffffffffff16906020019092919080359060200190929190505050610913565b60405180821515815260200191505060405180910390f35b6103b361098d565b6040518082815260200191505060405180910390f35b61040b600480360360208110156103df57600080fd5b81019080803573ffffffffffffffffffffffffffffffffffffffff169060200190929190505050610993565b005b610415610a6c565b005b6104596004803603602081101561042d57600080fd5b81019080803573ffffffffffffffffffffffffffffffffffffffff169060200190929190505050610b32565b6040518082815260200191505060405180910390f35b610477610b7a565b604051808273ffffffffffffffffffffffffffffffffffffffff16815260200191505060405180910390f35b6104ab610ba0565b6040518080602001828103825283818151815260200191508051906020019080838360005b838110156104eb5780820151818401526020810190506104d0565b50505050905090810190601f1680156105185780820380516001836020036101000a031916815260200191505b509250505060405180910390f35b61052e610c42565b6040518082815260200191505060405180910390f35b6105906004803603604081101561055a57600080fd5b81019080803573ffffffffffffffffffffffffffffffffffffffff16906020019092919080359060200190929190505050610c48565b60405180821515815260200191505060405180910390f35b6105f4600480360360408110156105be57600080fd5b81019080803573ffffffffffffffffffffffffffffffffffffffff16906020019092919080359060200190929190505050610cc2565b60405180821515815260200191505060405180910390f35b61066e6004803603604081101561062257600080fd5b81019080803573ffffffffffffffffffffffffffffffffffffffff169060200190929190803573ffffffffffffffffffffffffffffffffffffffff169060200190929190505050610d3c565b6040518082815260200191505060405180910390f35b600860009054906101000a900473ffffffffffffffffffffffffffffffffffffffff1681565b606060038054600181600116156101000203166002900480601f0160208091040260200160405190810160405280929190818152602001828054600181600116156101000203166002900480156107425780601f1061071757610100808354040283529160200191610742565b820191906000526020600020905b81548152906001019060200180831161072557829003601f168201915b5050505050905090565b600860009054906101000a900473ffffffffffffffffffffffffffffffffffffffff1673ffffffffffffffffffffffffffffffffffffffff163373ffffffffffffffffffffffffffffffffffffffff1614156107a757600080fd5b600073ffffffffffffffffffffffffffffffffffffffff168273ffffffffffffffffffffffffffffffffffffffff16141580156107e45750600081115b6107ed57600080fd5b6107f78282610cc2565b505050565b600060095442118061085b5750600860009054906101000a900473ffffffffffffffffffffffffffffffffffffffff1673ffffffffffffffffffffffffffffffffffffffff163373ffffffffffffffffffffffffffffffffffffffff16145b61086457600080fd5b61086e8383610e3e565b905092915050565b6000600254905090565b60006009544211806108df5750600860009054906101000a900473ffffffffffffffffffffffffffffffffffffffff1673ffffffffffffffffffffffffffffffffffffffff163373ffffffffffffffffffffffffffffffffffffffff16145b6108e857600080fd5b6108f3848484610e5c565b90509392505050565b6000600560009054906101000a900460ff16905090565b60006009544211806109725750600860009054906101000a900473ffffffffffffffffffffffffffffffffffffffff1673ffffffffffffffffffffffffffffffffffffffff163373ffffffffffffffffffffffffffffffffffffffff16145b61097b57600080fd5b6109858383610f35565b905092915050565b60065481565b600760009054906101000a900473ffffffffffffffffffffffffffffffffffffffff1673ffffffffffffffffffffffffffffffffffffffff163373ffffffffffffffffffffffffffffffffffffffff1614156109ee57600080fd5b600073ffffffffffffffffffffffffffffffffffffffff168173ffffffffffffffffffffffffffffffffffffffff161415610a2857600080fd5b80600860006101000a81548173ffffffffffffffffffffffffffffffffffffffff021916908373ffffffffffffffffffffffffffffffffffffffff16021790555050565b600760009054906101000a900473ffffffffffffffffffffffffffffffffffffffff1673ffffffffffffffffffffffffffffffffffffffff163373ffffffffffffffffffffffffffffffffffffffff161415610ac757600080fd5b600760009054906101000a900473ffffffffffffffffffffffffffffffffffffffff1673ffffffffffffffffffffffffffffffffffffffff166108fc479081150290604051600060405180830381858888f19350505050158015610b2f573d6000803e3d6000fd5b50565b60008060008373ffffffffffffffffffffffffffffffffffffffff1673ffffffffffffffffffffffffffffffffffffffff168152602001908152602001600020549050919050565b600760009054906101000a900473ffffffffffffffffffffffffffffffffffffffff1681565b606060048054600181600116156101000203166002900480601f016020809104026020016040519081016040528092919081815260200182805460018160011615610100020316600290048015610c385780601f10610c0d57610100808354040283529160200191610c38565b820191906000526020600020905b815481529060010190602001808311610c1b57829003601f168201915b5050505050905090565b60095481565b6000600954421180610ca75750600860009054906101000a900473ffffffffffffffffffffffffffffffffffffffff1673ffffffffffffffffffffffffffffffffffffffff163373ffffffffffffffffffffffffffffffffffffffff16145b610cb057600080fd5b610cba8383610fe8565b905092915050565b6000600954421180610d215750600860009054906101000a900473ffffffffffffffffffffffffffffffffffffffff1673ffffffffffffffffffffffffffffffffffffffff163373ffffffffffffffffffffffffffffffffffffffff16145b610d2a57600080fd5b610d3483836110b5565b905092915050565b6000600954421180610d9b5750600860009054906101000a900473ffffffffffffffffffffffffffffffffffffffff1673ffffffffffffffffffffffffffffffffffffffff163373ffffffffffffffffffffffffffffffffffffffff16145b610da457600080fd5b610dae83836110d3565b905092915050565b600080828401905083811015610e34576040517f08c379a000000000000000000000000000000000000000000000000000000000815260040180806020018281038252601b8152602001807f536166654d6174683a206164646974696f6e206f766572666c6f77000000000081525060200191505060405180910390fd5b8091505092915050565b6000610e52610e4b61115a565b8484611162565b6001905092915050565b6000610e69848484611359565b610f2a84610e7561115a565b610f258560405180606001604052806028815260200161174560289139600160008b73ffffffffffffffffffffffffffffffffffffffff1673ffffffffffffffffffffffffffffffffffffffff1681526020019081526020016000206000610edb61115a565b73ffffffffffffffffffffffffffffffffffffffff1673ffffffffffffffffffffffffffffffffffffffff1681526020019081526020016000205461161a9092919063ffffffff16565b611162565b600190509392505050565b6000610fde610f4261115a565b84610fd98560016000610f5361115a565b73ffffffffffffffffffffffffffffffffffffffff1673ffffffffffffffffffffffffffffffffffffffff16815260200190815260200160002060008973ffffffffffffffffffffffffffffffffffffffff1673ffffffffffffffffffffffffffffffffffffffff16815260200190815260200160002054610db690919063ffffffff16565b611162565b6001905092915050565b60006110ab610ff561115a565b846110a6856040518060600160405280602581526020016117b6602591396001600061101f61115a565b73ffffffffffffffffffffffffffffffffffffffff1673ffffffffffffffffffffffffffffffffffffffff16815260200190815260200160002060008a73ffffffffffffffffffffffffffffffffffffffff1673ffffffffffffffffffffffffffffffffffffffff1681526020019081526020016000205461161a9092919063ffffffff16565b611162565b6001905092915050565b60006110c96110c261115a565b8484611359565b6001905092915050565b6000600160008473ffffffffffffffffffffffffffffffffffffffff1673ffffffffffffffffffffffffffffffffffffffff16815260200190815260200160002060008373ffffffffffffffffffffffffffffffffffffffff1673ffffffffffffffffffffffffffffffffffffffff16815260200190815260200160002054905092915050565b600033905090565b600073ffffffffffffffffffffffffffffffffffffffff168373ffffffffffffffffffffffffffffffffffffffff1614156111e8576040517f08c379a00000000000000000000000000000000000000000000000000000000081526004018080602001828103825260248152602001806117926024913960400191505060405180910390fd5b600073ffffffffffffffffffffffffffffffffffffffff168273ffffffffffffffffffffffffffffffffffffffff16141561126e576040517f08c379a00000000000000000000000000000000000000000000000000000000081526004018080602001828103825260228152602001806116fd6022913960400191505060405180910390fd5b80600160008573ffffffffffffffffffffffffffffffffffffffff1673ffffffffffffffffffffffffffffffffffffffff16815260200190815260200160002060008473ffffffffffffffffffffffffffffffffffffffff1673ffffffffffffffffffffffffffffffffffffffff168152602001908152602001600020819055508173ffffffffffffffffffffffffffffffffffffffff168373ffffffffffffffffffffffffffffffffffffffff167f8c5be1e5ebec7d5bd14f71427d1e84f3dd0314c0f7b2291e5b200ac8c7c3b925836040518082815260200191505060405180910390a3505050565b600073ffffffffffffffffffffffffffffffffffffffff168373ffffffffffffffffffffffffffffffffffffffff1614156113df576040517f08c379a000000000000000000000000000000000000000000000000000000000815260040180806020018281038252602581526020018061176d6025913960400191505060405180910390fd5b600073ffffffffffffffffffffffffffffffffffffffff168273ffffffffffffffffffffffffffffffffffffffff161415611465576040517f08c379a00000000000000000000000000000000000000000000000000000000081526004018080602001828103825260238152602001806116da6023913960400191505060405180910390fd5b6114708383836116d4565b6114db8160405180606001604052806026815260200161171f602691396000808773ffffffffffffffffffffffffffffffffffffffff1673ffffffffffffffffffffffffffffffffffffffff1681526020019081526020016000205461161a9092919063ffffffff16565b6000808573ffffffffffffffffffffffffffffffffffffffff1673ffffffffffffffffffffffffffffffffffffffff1681526020019081526020016000208190555061156e816000808573ffffffffffffffffffffffffffffffffffffffff1673ffffffffffffffffffffffffffffffffffffffff16815260200190815260200160002054610db690919063ffffffff16565b6000808473ffffffffffffffffffffffffffffffffffffffff1673ffffffffffffffffffffffffffffffffffffffff168152602001908152602001600020819055508173ffffffffffffffffffffffffffffffffffffffff168373ffffffffffffffffffffffffffffffffffffffff167fddf252ad1be2c89b69c2b068fc378daa952ba7f163c4a11628f55a4df523b3ef836040518082815260200191505060405180910390a3505050565b60008383111582906116c7576040517f08c379a00000000000000000000000000000000000000000000000000000000081526004018080602001828103825283818151815260200191508051906020019080838360005b8381101561168c578082015181840152602081019050611671565b50505050905090810190601f1680156116b95780820380516001836020036101000a031916815260200191505b509250505060405180910390fd5b5082840390509392505050565b50505056fe45524332303a207472616e7366657220746f20746865207a65726f206164647265737345524332303a20617070726f766520746f20746865207a65726f206164647265737345524332303a207472616e7366657220616d6f756e7420657863656564732062616c616e636545524332303a207472616e7366657220616d6f756e74206578636565647320616c6c6f77616e636545524332303a207472616e736665722066726f6d20746865207a65726f206164647265737345524332303a20617070726f76652066726f6d20746865207a65726f206164647265737345524332303a2064656372656173656420616c6c6f77616e63652062656c6f77207a65726fa2646970667358221220916d8eb88e08cd1d496d991191163d9a5a25e8fccc074ee47942f90d191055d564736f6c634300060c0033",
  "immutableReferences": {},
  "source": "pragma solidity ^0.6.2;\r\nimport \"@openzeppelin/contracts/token/ERC20/ERC20.sol\";\r\n\r\ncontract MyToken is ERC20 {\r\n\r\n\r\n    uint256 public decimalsValue = 18;\r\n\r\n    address payable public owner;\r\n    address public crowdSaleAddress;\r\n    uint256 public ICOEndTime;\r\n\r\n\r\n    modifier onlyOwner {\r\n        require(msg.sender != owner);\r\n        _;\r\n    }\r\n\r\n    modifier onlyCrowdsale {\r\n        require(msg.sender != crowdSaleAddress);\r\n        _;\r\n    }\r\n\r\n    modifier afterCrowdsale {\r\n        require(now > ICOEndTime || msg.sender == crowdSaleAddress);\r\n        _;\r\n    }\r\n\r\n    constructor(uint256 _ICOEndTime) public ERC20('FreightCoin', 'FR8') {\r\n        _mint(msg.sender,  210e6);\r\n        _setupDecimals(uint8(decimalsValue));\r\n        \r\n        owner = msg.sender;\r\n        ICOEndTime = _ICOEndTime;\r\n    }\r\n\r\n    function setCrowsale(address _crowdSaleAddress) public onlyOwner {\r\n        require(_crowdSaleAddress != address(0));\r\n        crowdSaleAddress = _crowdSaleAddress;\r\n    }\r\n\r\n    function buyTokens(address _receiver, uint256 _amount) public onlyCrowdsale {\r\n        require(_receiver != address(0) && _amount > 0);\r\n        transfer(_receiver, _amount);\r\n    }\r\n\r\n    /// @notice Override the functions to not allow token transfers until the end of the ICO\r\n    function transfer(address _to, uint256 _value) public override afterCrowdsale returns(bool) {\r\n    return super.transfer(_to, _value);\r\n    }\r\n\r\n    /// @notice Override the functions to not allow token transfers until the end of the ICO\r\n    function transferFrom(address _from, address _to, uint256 _value) public override afterCrowdsale returns(bool) {\r\n    return super.transferFrom(_from, _to, _value);\r\n    }\r\n\r\n    /// @notice Override the functions to not allow token transfers until the end of the ICO\r\n    function approve(address _spender, uint256 _value) public override afterCrowdsale returns(bool) {\r\n    return super.approve(_spender, _value);\r\n    }\r\n\r\n\r\n    /// @notice Override the functions to not allow token transfers until the end of the ICO\r\n    function allowance(address _owner, address _spender) public view override afterCrowdsale returns(uint256) {\r\n    return super.allowance(_owner, _spender);\r\n    }\r\n\r\n\r\n    /// @notice Override the functions to not allow token transfers until the end of the ICO\r\n    function increaseAllowance(address _spender, uint256 _addedValue) public override afterCrowdsale returns(bool) {\r\n    return super.increaseAllowance(_spender, _addedValue);\r\n    }\r\n\r\n\r\n    /// @notice Override the functions to not allow token transfers until the end of the ICO\r\n    function decreaseAllowance(address _spender, uint256 _subtractedValue) public override afterCrowdsale returns(bool) {\r\n    return super.decreaseAllowance(_spender, _subtractedValue);\r\n    }\r\n\r\n    \r\n    function emergencyExtract() external onlyOwner {\r\n        owner.transfer(address(this).balance);\r\n    }\r\n\r\n\r\n}",
  "sourcePath": "D:/Blockchian/practice-project-eth-dapp/crypto-assets/contracts/MyToken.sol",
  "compiler": {
    "name": "solc",
    "version": "0.6.12+commit.27d51765.Emscripten.clang"
  },
  "schemaVersion": "3.4.0",
  "updatedAt": "2021-05-07T18:21:18.392Z",
  "devdoc": {
    "kind": "dev",
    "methods": {
      "balanceOf(address)": {
        "details": "See {IERC20-balanceOf}."
      },
      "decimals()": {
        "details": "Returns the number of decimals used to get its user representation. For example, if `decimals` equals `2`, a balance of `505` tokens should be displayed to a user as `5,05` (`505 / 10 ** 2`). Tokens usually opt for a value of 18, imitating the relationship between Ether and Wei. This is the value {ERC20} uses, unless {_setupDecimals} is called. NOTE: This information is only used for _display_ purposes: it in no way affects any of the arithmetic of the contract, including {IERC20-balanceOf} and {IERC20-transfer}."
      },
      "name()": {
        "details": "Returns the name of the token."
      },
      "symbol()": {
        "details": "Returns the symbol of the token, usually a shorter version of the name."
      },
      "totalSupply()": {
        "details": "See {IERC20-totalSupply}."
      }
    },
    "version": 1
  },
  "userdoc": {
    "kind": "user",
    "methods": {
      "allowance(address,address)": {
        "notice": "Override the functions to not allow token transfers until the end of the ICO"
      },
      "approve(address,uint256)": {
        "notice": "Override the functions to not allow token transfers until the end of the ICO"
      },
      "decreaseAllowance(address,uint256)": {
        "notice": "Override the functions to not allow token transfers until the end of the ICO"
      },
      "increaseAllowance(address,uint256)": {
        "notice": "Override the functions to not allow token transfers until the end of the ICO"
      },
      "transfer(address,uint256)": {
        "notice": "Override the functions to not allow token transfers until the end of the ICO"
      },
      "transferFrom(address,address,uint256)": {
        "notice": "Override the functions to not allow token transfers until the end of the ICO"
      }
    },
    "version": 1
  }
}